:1000000080313728080008007E1480310B1F092832
:100010000A2835282E00191E0E280F281A280F1E10
:10002000122813281A2821005F088A005E080A0097
:1000300080313528991E1D281E2829288F1E212829
:100040002228292821005D088A005C080A008031E6
:1000500035289A1E2C282D283528901E3028312826
:1000600035288C315E24803135287E10090080319E
:100070003928CC3084008B3085001200DA00120061
:10008000DB001200DC001200DD001200DE001200B6
:10009000DF008C308400233085006430FE000030A7
:1000A000FF008C31522480314E30840000308500B6
:1000B0000C30FE000030FF008C3152248031A03023
:1000C0008400003085003630FE000030FF008C31A7
:1000D0005224803120308400013085003430FE000D
:1000E0000030FF008C31522480317E10200080319E
:1000F00079282200DB01DC01DA01E001DD018C312D
:100100007D2480318C31202480318731C927803192
:100110008B170B172B302000A2000D30A3008C3161
:10012000172480318B31AF238031200096130D1AB4
:100130009A289B28B9280130CA004A082200DA060A
:1001400003102000961F03140318A728AA282000D4
:100150009617AC282000961304302000CB008E3078
:10016000CA001230890BB228CA0BB228CB0BB228B6
:10017000000020008E1ABD28BE2897285308031DB2
:10018000C228C3289728D301D30A04302000CB000B
:100190008E30CA001230890BCB28CA0BCB28CB0B70
:1001A000CB28000020005303031DD728D828D228CD
:1001B0005F08D200F22801302200DB070030DC3D6E
:1001C00032302000A2000030A3005208013EA400FB
:1001D000003003180130A5008631822680312000CE
:1001E0002208D2005E08CA00CB01CA1BCB0352080A
:1001F000CC00CD014B084D06031D00294A084C06D2
:10020000031D03290429DB2822005C08803A200012
:10021000CA0080304A02031D1029013022005B020F
:10022000031C13291429C92A8C3190248031200001
:1002300023082200DF00200022082200DE005F08E1
:100240002000AC0022005E082000AB008531822532
:10025000803120002C082200D90020002B08220029
:10026000D80058085E022000A200220059085F3B17
:100270002000A3008C31ED24803120002308B90038
:100280002208B80087317A27803120003B08C3005C
:100290003A08C2003908C1003808C000863111266A
:1002A0008031200041082200E200200040082200A6
:1002B000E1005A08031D5D295E29F529003062021C
:1002C0000F3003196102031C66296729AE2920003B
:1002D00016160030A400A5007830A6000030A70054
:1002E00000308E31A326803100302000A400A5000C
:1002F0007830A6000030A70001308E31A32680316F
:1003000000302000A400A5007830A6000030A7002F
:1003100002308E31A326803100302000A400A500D9
:100320007830A6000030A70003308E31A32680313C
:1003300000302000A400A5007830A6000030A700FF
:1003400004308E31A326803141302000CA00EE30C7
:10035000890BA829CA0BA82900009A2A003062023A
:100360000F30031961020318B629B7299A2A200011
:1003700016120030A400A500F430A6000130A7003A
:1003800000308E31A326803100302000A400A5006B
:10039000F430A6000130A70001308E31A326803151
:1003A00000302000A400A500F430A6000130A70012
:1003B00002308E31A326803100302000A400A50039
:1003C000F430A6000130A70003308E31A32680311F
:1003D00000302000A400A500F430A6000130A700E2
:1003E00004308E31A32680319A2A003062021930FF
:1003F00003196102031CFD29FE298B2A6008031DD5
:10040000022A032A8B2AE001E00A5D03031D092A60
:100410000A2A492ADD01200016160030A400A50092
:100420007830A6000030A70000308E31A32680313E
:1004300000302000A400A5007830A6000030A700FE
:1004400001308E31A326803100302000A400A500A9
:100450007830A6000030A70002308E31A32680310C
:1004600000302000A400A5007830A6000030A700CE
:1004700003308E31A326803100302000A400A50077
:100480007830A6000030A70004308E31A3268031DA
:100490009A2A00302000A400A500F430A600013004
:1004A000A70000308E31A326803100302000A40048
:1004B000A500F430A6000130A70001308E31A3263C
:1004C000803100302000A400A500F430A6000130E7
:1004D000A70002308E31A326803100302000A40016
:1004E000A500F430A6000130A70003308E31A3260A
:1004F000803100302000A400A500F430A6000130B7
:10050000A70004308E31A32680312000161222006D
:10051000DD01DD0A9A2A00306202193003196102F6
:100520000318932A942A9A2A6003031D982A992A69
:100530009A2AE0018E317626803140302000A500D5
:10054000A030A4000030A3000030A2002200570811
:100550002000A900220056082000A800220055080B
:100560002000A700220054082000A6008231CF22DC
:100570008031200025082200D70020002408220016
:10058000D600200023082200D500200022082200E7
:10059000D4002200DB01DC01D22880313728200082
:1005A00025088039B2002535B400A41FD82AD92ADD
:1005B000DA2A341434080319DE2ADF2AEF2A340A2F
:1005C000031DE32AE42AEC2A0030A5000030A40031
:1005D0000030A3000030A200A417A501F72A0030C4
:1005E000A5000030A4000030A3000030A2002908BC
:1005F0008039B300330832060319FF2A002B012B80
:1006000032172935B300A81F062B072B082B3314EC
:10061000330803190C2B0D2B1D2B330A031D112B33
:10062000122B1A2B0030A9000030A8000030A700C0
:100630000030A600A817A901252B0030A900003022
:10064000A8000030A7000030A600340833020318C9
:100650002A2B2B2B512B321F2E2B2F2B332B803061
:10066000AA002A08B2063408B5003308B4003508D9
:10067000B3002208B5002608A2003508A60023080A
:10068000B5002708A3003508A7002408B5002808EE
:10069000A4003508A8002508B5002908A5003508DC
:1006A000A900B5013308AA00AB012B08AD0034083E
:1006B0002A02AC00031CAD032D08803AAE00803046
:1006C0002E02031D652B1A302C02031C682B692B8C
:1006D0009B2B20002508240423042204031D712BD6
:1006E000732B0130742B0030B5000030A5000030B2
:1006F000A4000030A3000030A2003308B400A22BF5
:10070000351C832B842B882B35360138B5008A2B7A
:100710000310B50C221C8D2B8E2B8F2BB51701309F
:10072000AA00A537A40CA30CA20CAA0B912B013094
:10073000AA002A08B407200033083402031CA12BA6
:10074000A22B802B321BA52BA62BDC2B3408031DE0
:10075000AA2BAB2BB42B0030A5000030A400003036
:10076000A3000030A200D62C2608A2072708A33D2C
:100770002808A43D2908A53D251CBF2BC02B682CAB
:10078000351CC32BC42BC82B35360138B500CA2BFA
:100790000310B50C221CCD2BCE2BCF2BB51701305F
:1007A000AA00A537A40CA30CA20CAA0BD12B0130D4
:1007B000AA002A08B407682C2508803AAA0029084C
:1007C000803A2A02031DEE2B28082402031DEE2B7B
:1007D00027082302031DEE2B260822020318F12B03
:1007E000F22B2A2CFF30AA00FF30AB00FF30AC0008
:1007F000FF30AD0022082602AE002308273BAF00E1
:100800002408283BB0002508293BB1002E08AA0780
:100810002F08AB3D3008AC3D3108AD3D2D08A5009B
:100820002C08A4002B08A3002A08A2008030AA00EC
:100830002A08B206B509B50A3508031D202C212C5B
:10084000322C0130A2070030A33D0030A43D00301F
:10085000A53D322C2608A2022708A33B2808A43B6A
:100860002908A53B2508240423042204031D392C50
:100870003A2C642C3508031D3E2C3F2C642C003090
:10088000A5000030A4000030A3000030A200D62C48
:100890000130A235A30DA40DA50D890B492CB51F60
:1008A000522C532C542C2214351C572C582C5B2CB6
:1008B0000314B50D5D2C0310B50D34080319612C1C
:1008C000622C642C0130B402A41F672C682C482CC5
:1008D000B301B51F6C2C6D2C7B2C35087F390319A7
:1008E000722C732C762CB301B30A7B2C221C792C2E
:1008F0007A2C7B2C732C330803197F2C802CAD2C85
:100900000130A2070030A33D0030A43D0030A53DDA
:10091000251C8B2C8C2CAD2C2208AA002308AB00A4
:100920002408AC002508AD000130AE00AD37AC0C9A
:10093000AB0CAA0CAE0B962C2D08A5002C08A4001D
:100940002B08A3002A08A200340A0319A82CA92CFA
:10095000AD2C0130AA002A08B407340A0319B12CBF
:10096000B22CB72C3408031DB62CB72CC52C003084
:10097000A5000030A4000030A3000030A20034081D
:10098000031DC32CC42CC52CB201341CC82CC92C8B
:10099000CB2CA417CF2C7F30AA002A08A40534360C
:1009A000A500B21FD42CD52CD62CA51708002000EA
:1009B000B20032080319DD2CDE2CF22CAD1FE12C25
:1009C000E22CF22C2A09B4002B09B5002C09B60040
:1009D0002D09B700B40A0319B50A0319B60A031999
:1009E000B70AFA2C2D08B7002C08B6002B08B50062
:1009F0002A08B4002D082C042B042A04031D012D01
:100A0000022D0B2D0030AD000030AC000030AB00EB
:100A10000030AA00812D9630B300192D0130AE00B0
:100A20002E08B3070130B736B60CB50CB40C890BE1
:100A3000132DFE303705031D1E2D1F2D0E2D332DBA
:100A40000130AE002E08B3070130B4070030B53DC9
:100A50000030B63D0030B73D0130B736B60CB50CAE
:100A6000B40C890B2D2DFF303705031D382D392D82
:100A7000202D432D0130B3020130B435B50DB60D34
:100A8000B70D890B3D2DB61B462D472D4D2D023040
:100A9000330203184C2D4D2D3A2D3318502D512D66
:100AA000592DFF30B405FF30B5057F30B605FF3056
:100AB000B7050310B30C3308AE00AF01B001B101AC
:100AC0001830AE35AF0DB00DB10D890B612D2E086C
:100AD000B4042F08B5043008B6043108B70432084E
:100AE0000319732D742D792DAD1F772D782D792D48
:100AF000B7173708AD003608AC003508AB0034082E
:100B0000AA00080020002C08AA002B08A9008E319A
:100B10001D2685318D31CB258531003A0319912D64
:100B2000922D952D8D31F425853120005D35B43E13
:100B300086008701403FB300413FB4005D35B43EBD
:100B400086008701403FB500413FB6005D08B70011
:100B5000EE2D3735B43E86008701403FAD00413F62
:100B6000AE002E083402031DB72D2D0833020318E2
:100B7000BA2DBB2DC32D3735B43E86008701403FCB
:100B8000B300413FB4003735B43E86008701403F93
:100B9000AD00413FAE0036082E02031DD12D3508B1
:100BA0002D020318D42DD52DDD2D3735B43E86000A
:100BB0008701403FB500413FB6000530A20000303C
:100BC000A3003708013EA400003003180130A5003F
:100BD00086318226853120002208B7005C08AD00EE
:100BE000AE01AD1BAE033708AF00B0012E083006D2
:100BF000031DFC2D2D082F06031DFF2D002EA92DF2
:100C000035083307AD003608343DAE00AE36AD0CC6
:100C10002D08B1002E08B2003208AC003108AB003C
:100C2000080003102000420D430DC9004908031DB0
:100C30001A2E1B2E242E0030C3000030C2000030BC
:100C4000C1000030C000812E4008C4004108C5002A
:100C50004208C6004308C7001F30C736C60CC50C83
:100C6000C40C890B2D2E4408C800C217FF30C005E4
:100C7000FF30C105FF30C2050030C3059630C90200
:100C8000C91F432E442E5C2E4908803A973E031814
:100C90004A2E4B2E4C2E1B2E0130C336C20CC10CDB
:100CA000C00C890B4D2E0130C4004408C907031D38
:100CB0005A2E5B2E4C2E712E20304902031C612EC1
:100CC000622E6C2E1B2E0130C035C10DC20DC30D1E
:100CD000890B642E0130C9024908031D702E712E44
:100CE000632E48080319752E762E812EC009C1097E
:100CF000C209C309C00A0319C10A0319C20A0319A8
:100D0000C30A08002000A801A51F872E882E8F2E59
:100D1000A409A509A40A0319A50AA801A80AA31FE2
:100D2000922E932E982EA209A309A20A0319A30AB0
:100D30002208230403199D2E9E2EC72EA701A70A61
:100D4000AA2E0130A235A30D890BA22E0130A600D8
:100D50002608A707A31FAD2EAE2EA12E230825021D
:100D6000031DB42E22082402031CB72EB82EBC2E5D
:100D70002208A4022308A53B0130A336A20C890B4C
:100D8000BD2E0130A702031DC62EC72EAE2E280889
:100D90000319CB2ECC2ED12EA409A509A40A031920
:100DA000A50A2508A3002408A2000800F601F31FE5
:100DB000DA2EDB2EE22EF209F309F20A0319F30A06
:100DC000F601F60AF11FE52EE62EEB2EF009F109E9
:100DD000F00A0319F10A700871040319F02EF12EBC
:100DE0001A2FF501F50AFD2E0130F035F10D890BB2
:100DF000F52E0130F4007408F507F11F002F012FC4
:100E0000F42E71087302031D072F70087202031C71
:100E10000A2F0B2F0F2F7008F2027108F33B0130DD
:100E2000F136F00C890B102F0130F502031D192F3C
:100E30001A2F012F760803191E2F1F2F242FF209B6
:100E4000F309F20A0319F30A7308F1007208F000BB
:100E5000080020009A019901960197019801073036
:100E600095006F309100FF309200BF309300FF304B
:100E70009400FF303E00D900CE016F30C300073030
:100E8000E400EF30B800DA01E501C401B901CF0197
:100E9000E601BA01C501D001DB01FF30BB00FF3024
:100EA000C600FF30D100FF30DC000730E700FF3024
:100EB000BC00FF30C700FF30D200FF30DD0007303C
:100EC000E80017303D00CB0010303E00A600133084
:100ED0003D00C5001430C60014303E00A30015309C
:100EE000A40017303D00CB000F309E0010303E00B4
:100EF000A600080020003908AA003808A9008E3191
:100F00004926873120003808CE073908CF3D8D317A
:100F100079258731003A03198E2F8F2FA02F2000BB
:100F20005B35203E860001308700403FBC00413FDA
:100F3000BD003C08CE023D08CF3B8D31A225873154
:100F400020004F08A5004E08A4001930A200003070
:100F5000A3008F318127873120002208BC0023089D
:100F6000BD00BE01BF013F08AD003E08AC003D081A
:100F7000AB003C08AA0000308431D7248731200020
:100F80002D08BB002C08BA002B08B9002A08B800AD
:100F900008008B31C023873180308C314724873162
:100FA00000308C314724873110308C314724873111
:100FB0008B31C62387318B31C023873180308C3110
:100FC00047248731FE308C31472487317D308C3186
:100FD000472487318B31C62387318B31C02387313A
:100FE00080308C314724873100308C314724873161
:100FF00021308C31472487318B31C623873108005B
:10175E0025009A1708008C31D4248B310800220002
:10176E001D121D16080021000D08F1000C08F000D6
:10177E0008008C316D248B312300111408008C313C
:10178E006D248B31230011150800FF34FF34FF3414
:10179E00FF34FF34FF34F000700821009E009317D1
:1017AE00131408002F0096019701980199019A01D0
:1017BE009B010800200023082100D70020002208EA
:1017CE002100D6000800200023082100DB002000A5
:1017DE0022082100DA000800200023082100D90089
:1017EE00200022082100D800080020002308210034
:1017FE00DD00200022082100DC0008002000230864
:10180E002100DF00200022082100DE0008006030E9
:10181E0031008D008F019101063093009201080076
:10182E00200023082100E100200022082100E00012
:10183E000800383023009000910109308D000F17F9
:10184E008F17080020005B0A031D2E2C2F2C312C25
:10185E000130322C0030080020005D0A031D382CA8
:10186E00392C3B2C01303C2C0030080020005F0A44
:10187E00031D422C432C452C0130462C0030080011
:10188E002000A3008C316D248C312000230823000E
:10189E008C00110808006400800101310130FE0245
:1018AE000030FF3B7F087E04031D532C00342E00B6
:1018BE0090122100600861040319662C672C6C2CB1
:1018CE0061088A0060080A008C31080023000F0CA2
:1018DE00890C01392000A200230011081F392000B5
:1018EE002204031D7B2C7C2C6D2C08008B31D923FC
:1018FE008C31873129278C318C310E248C318C31EF
:10190E00BC248C318C31A5248C318F31BE278C3187
:10191E00080020005F08A400A501A435A50D8C3099
:10192E00A6002330A7002408260786002508273D99
:10193E008700403FA200413FA30008000130250070
:10194E009C009B019D019B30990098012E009012E6
:10195E009A1603302000A2000030A3008C31172409
:10196E008C31E73025009A00080022008E018F018D
:10197E0090019101920193018D0121009E019B0125
:10198E009C0194019501960197019A0199010730E6
:10199E009800803093009D01080020005708C63E35
:1019AE00860087012200190881000130F0007008BE
:1019BE002000D70708305702031CE62CE72CE82C32
:1019CE00D7010130F0007008D50708002000230869
:1019DE00803AA40080302402031DF72C013022022D
:1019EE000318FA2CFB2C082D20002209A400230931
:1019FE00A500A40A0319A50A2408A2002508A3001D
:101A0E00082D080008302000600203180F2D102D3D
:101A1E00282D5808CE3E86008701010822009A0024
:101A2E000130F00070082000D80708305802031C5F
:101A3E00212D222D232DD8010130F0007008E00752
:101A4E002A2D2E001912080020005303031D302DDD
:101A5E00312D4F2D02308B31D2238D318B31BA2364
:101A6E008D3171082000A1007008A0006430F000D4
:101A7E000030F1002108F3002008F2008F31082712
:101A8E008D317108F9007008F8008E31D1268D3134
:101A9E00080020005F08F000F101F01BF103013097
:101AAE005E07F200F3010318F30ADE1F5F2DF30346
:101ABE0071087306031D652D700872060319682DD3
:101ACE00692D752D20005F08031D6E2D6F2D772D4E
:101ADE0031305E06031D742D752D772D0130782D56
:101AEE000030080020005B08A200A301A21BA30384
:101AFE0001305A07A400A5010318A50ADA1F882D84
:101B0E00A503200023082506031D8F2D2208240679
:101B1E000319922D932D9E2D5B08031D972D982D45
:101B2E00A02D19305A06031D9D2D9E2DA02D01307E
:101B3E00A12D003008008C3129248D31003A031973
:101B4E00A92DAA2DAB2DCA2D20005B085A06031D08
:101B5E00B12DB22DB72DDB01DB03DA01DA03CA2D6D
:101B6E001A30A2000030A30001305B07A400A501CB
:101B7E000318A50ADB1FC42DA503863182268D31DD
:101B8E0020002208DB00080020005D08A200A3014F
:101B9E00A21BA30301305C07A400A5010318A50A2C
:101BAE00DC1FDA2DA503200023082506031DE12DD9
:101BBE00220824060319E42DE52DF02D5D08031DE2
:101BCE00E92DEA2DF22D04305C06031DEF2DF02DCC
:101BDE00F22D0130F32D003008008C3133248D317D
:101BEE00003A0319FB2DFC2DFD2D1C2E20005D0847
:101BFE005C06031D032E042E092EDD01DD03DC0120
:101C0E00DC031C2E0530A2000030A30001305D075E
:101C1E00A400A5010318A50ADD1F162EA503863103
:101C2E0082268D3120002208DD0008008D31CB2563
:101C3E008E31003A0319242E252E262E482E2000F2
:101C4E005D0A031D2B2E2C2E2D2EDD010530A2003C
:101C5E000030A30001305C07A400A5010318A50AFB
:101C6E00DC1F3A2EA503863182268E3120002208F3
:101C7E00DC005C35B43E860087012908C03F2A0887
:101C8E00C13F08008D3179258E31003A0319502E4F
:101C9E00512E522E752E20005B0A031D572E582EE4
:101CAE00592EDB011A30A2000030A30001305A0772
:101CBE00A400A5010318A50ADA1F662EA503863116
:101CCE0082268E3120002208DA005A35203E860008
:101CDE00013087002908C03F2A08C13F08008C3117
:101CEE003D248E31003A03197D2E7E2E7F2EA22E9C
:101CFE008C3086002330870020005F085E06031DAF
:101D0E00892E8A2E8F2EDF01DF03DE01DE03A22E47
:101D1E003230A2000030A30001305F07A400A501FD
:101D2E000318A50ADF1F9C2EA503863182268E314D
:101D3E0020002208DF0008002000A9008B31C023FC
:101D4E008E3180308C3147248E3120002908A80036
:101D5E000130A835FF3E031DB02E2835063E8C31CE
:101D6E0047248E31200024088C3147248E312000E8
:101D7E0025088C3147248E31200026088C314724CB
:101D8E008E31200027088C3147248E318B31C623AB
:101D9E008E3108008D3150258E31003A0319D82E20
:101DAE00D92EDA2E072F20005F0A031DDF2EE02E1C
:101DBE00E12EDF013230F0000030F10001305E071D
:101DCE00F200F3010318F30ADE1FEE2EF303863141
:101DDE00D6268E3170082000DE005E08FA00FB0168
:101DEE00FA35FB0D8C30FC002330FD007A087C07A1
:101DFE0086007B087D3D87007808C03F7908C13F8B
:101E0E000800F501F6017008710403190F2F102F49
:101E1E003F2FF701F70A1C2F0130F035F10D890B1A
:101E2E00142F0130F4007408F707F11F1F2F202F15
:101E3E00132F0130F535F60D890B212F7108730222
:101E4E00031D2B2F70087202031C2E2F2F2F342FE1
:101E5E007008F2027108F33B75140130F136F00C84
:101E6E00890B352F0130F702031D3E2F3F2F202FF8
:101E7E007608F1007508F000080020005708BE3EF5
:101E8E0086008701810122001D1D4E2F4F2F5B2FD3
:101E9E0020005708BE3E86008701811421005B0892
:101EAE008A005A080A008F3122009D1C5F2F602F76
:101EBE006C2F20005708BE3E8600870101152100B9
:101ECE0059088A0058080A008F3120005708BE3E74
:101EDE008600870101080319752F762F7D2F2100AB
:101EEE0057088A0056080A008F31802F8C31D4246F
:101EFE008F3108002000A801A9012208230403192C
:101F0E00892F8A2FB92FA701A70A962F0130A23544
:101F1E00A30D890B8E2F0130A6002608A707A31F3D
:101F2E00992F9A2F8D2F0130A835A90D890B9B2F34
:101F3E0023082502031DA52F22082402031CA82F07
:101F4E00A92FAE2F2208A4022308A53B2814013086
:101F5E00A336A20C890BAF2F0130A702031DB82F99
:101F6E00B92F9A2F2908A3002808A20008002E00D6
:101F7E00991244302000A2000F30A3008B31FC23B5
:101F8E008F312E00191209302000A2000D30A3004F
:101F9E008C3105248F31083022009F0090309D0037
:101FAE0024309E00CF309B009C0102302000A20006
:101FBE000030A3008B31EA238F31B6302000A2000F
:101FCE000B30A3008B31F3238F31B2302000A200EF
:101FDE000B30A3008B31E1238F312000D401D901C6
:101FEE00D8010830E000D701D601D5012E00991690
:021FFE000800D9
:020000040001F9
:08000000FF3FFF3FFF3FFF3F00
:0A000E00EC3FFF3F9F3FFF3FFF3F25
:00000001FF
